:020000040000FA
:10000000880A00206D0200008102000083020000C7
:10001000850200008502000085020000000000004B
:100020000000000000000000000000008502000049
:10003000850200000000000085020000850200002B
:100040008502000085020000850200008502000094
:100050008502000085020000850200008502000084
:100060008502000085020000850200008502000074
:100070008502000085020000850200008502000064
:100080008502000085020000850200008502000054
:100090008502000085020000850200008502000044
:1000A0008502000085020000850200008502000034
:1000B0008502000085020000850200008502000024
:1000C0008502000085020000850200008502000014
:1000D0008502000085020000850200008502000004
:1000E0008502000000000000000000008502000002
:1000F00085020000850200008502000085020000E4
:1001000085020000850200008502000085020000D3
:1001100000000000000000008502000085020000D1
:1001200085020000850200008502000085020000B3
:1001300085020000850200008502000085020000A3
:1001400000000000000000000000000000000000AF
:100150008502000085020000850200008502000083
:10016000000000000000000000000000000000008F
:10017000000000000000000000000000000000007F
:10018000000000000000000000000000000000006F
:10019000000000000000000000000000000000005F
:1001A000000000000000000000000000000000004F
:1001B0008502000085020000850200008502000023
:1001C0008502000085020000850200008502000013
:1001D0008502000085020000850200008502000003
:1001E000850200008502000085020000000000007A
:1001F000000000008502000085020000850200006A
:1002000085020000850200000000000000000000E0
:1002100085020000850200008502000085020000C2
:1002200085020000850200008502000085020000B2
:1002300085020000850200008502000085020000A2
:100240008502000085020000850200008502000092
:100250008502000085020000850200008502000082
:100260008502000085020000850200004EF68850DD
:10027000CEF20000016841F47001016000F004B8A2
:10028000FEE7FEE7FEE70000DFF80CD000F0CEFB53
:100290000048004735470000880A00200138FDD19A
:1002A0007047D2B201E000F8012B491EFBD2704723
:1002B0000022F6E710B513460A4604461946FFF732
:1002C000F0FF204610BD2DE9FE4F804681EA030075
:1002D000C00F0C46009021F0004123F00045B8EB20
:1002E0000200A94105D24046214690461C460B46D5
:1002F000024623F00040104347D0270DC7F30A0001
:10030000C3F30A510290401A019040286BDAC3F3FC
:10031000130040F4801B0098924620B10023D2EBDA
:10032000030A63EB0B0B01985946C0F1400250469B
:1003300000F04DFA06460D4650465946019A00F027
:1003400065FA10EB08006141002487EA115284EA43
:10035000E7731A4340D0009A62B3019A012A4FEA28
:10036000075215DC001B61EB02014FF0004202EA6C
:100370000752CDE90042001C41F5801132462B4660
:1003800000F09CFA03B0BDE8F08F40462146F9E743
:10039000001B61EB0201001C41F5801300185B415A
:1003A0002018A2F5001747EB030140EAD570B619F3
:1003B0006D4111E06D084FEA360645EAC0754FEA17
:1003C0000752001B61EB0201001C41F58011490836
:1003D0004FEA30000019514132462B4603B0BDE8C8
:1003E000F04F00F05CBA0098012240000023D0EBEF
:1003F000020263EBE073009821464FEAE074B8EB29
:10040000000061EB0401E9E783F000435BE781F062
:10041000004158E72DE9FE4F81EA030404F000444F
:1004200021F0004100944FF0000B23F0004350EA0C
:1004300001045ED052EA03045BD0C3F30A54C1F353
:100440000A552C44A4F2F3340194A0FB0254C1F3E6
:10045000130141F48011C3F3130343F4801301FB30
:10046000024400FB034E840A970A44EA815447EA97
:100470008357A4FB076802958D0A05FB07854FEAA1
:10048000932C04FB0C542705029D4FEA065847EABB
:100490001637B5EB08056EEB070C870E920E47EA90
:1004A000811742EA8312A7FB0201B6EB0B0164EB52
:1004B00000042B0D43EA0C335E1844EB1C50DA4663
:1004C0005146E7FB0201C5F313044FEA0B3343EA3D
:1004D00014534FEA0432019C43EA0603A4F10C04CE
:1004E0000294009CCDE900B400F0E8F903B0BDE847
:1004F000F08F00200146F9E72DE9F04D81EA030471
:1005000004F0004B21F0004514464FF0000A23F0A0
:10051000004150EA050220D054EA01021DD0C5F383
:100520000A570246C5F31303C1F31300C1F30A5679
:1005300040F4801543F48013A7EB0608101BD64641
:1005400008F2FD3873EB050002D308F1010801E061
:1005500092185B41B8F1000F03DA00200146BDE8B4
:10056000F08D00204FF48011064684460EE0171BE4
:1005700073EB050705D3121B63EB050306434CEA37
:10058000010C49084FEA300092185B4150EA01071C
:10059000EDD152EA030012D082EA040083EA050199
:1005A000084305D0101BAB4106D20122002306E010
:1005B00000224FF0004302E06FF0010253101AEBEB
:1005C00006004CEB085110EB0A0041EB0B01BDE8B3
:1005D000F04D00F064B90EB5C10F80EAE070084438
:1005E000CA07002140F233438DE80E000A460B464D
:1005F00000F064F903B000BD0EB540F23341029142
:100600000021CDE900110A460B4600F057F903B06E
:1006100000BD70B5C1F30A5201F000450024C1F3DA
:10062000130140F2FF3341F480119A4201DA0020B5
:1006300070BD40F233439A42A2F2334203DC52428D
:1006400000F0D4F800E090402C43F1D0404270BD5F
:10065000C1F30A5210B5C1F3130140F2FF3341F464
:1006600080119A4201DA002010BD40F233439A42D1
:10067000A2F2334203DC524200F0B8F810BD9040C1
:1006800010BD00F0004230F000400AD0C10D01F56D
:100690006071C0F3160042EA0151C20840071143DD
:1006A000704700200146704730B5041E71F1000408
:1006B00004DB4FF00044404264EB0101141E73F16F
:1006C000000405DB1C464FF00043524263EB040379
:1006D0008B4208BF824230BD30B5041E71F1000468
:1006E00004DB4FF00044404264EB0101141E73F13F
:1006F000000405DB1C464FF00043524263EB040349
:10070000994208BF904230BD01F0004330B421F05F
:10071000004150EA010206D00A0DA2F56072C1F351
:100720001301002A02DC30BC00207047440F44EA69
:10073000C104C100E01830BC00EBC25000F078B832
:1007400030B50B46014600202022012409E021FAA1
:1007500002F59D4205D303FA02F5491B04FA02F59E
:100760002844151EA2F10102F1DC30BD2DE9F05F35
:100770000546002092469B46884606468146402410
:100780001BE0284641464746224600F02FF85346D4
:100790005A46C01A914110D311461846224600F01D
:1007A00016F82D1A67EB01084F462246012000215A
:1007B00000F00DF817EB00094E41201EA4F10104D2
:1007C000DFDC484631462A464346BDE8F09F202AF2
:1007D00004DB203A00FA02F1002070479140C2F198
:1007E000200320FA03F3194390407047202A04DBCA
:1007F000203A21FA02F00021704721FA02F3D0409A
:10080000C2F120029140084319467047202A06DBB6
:10081000CB17203A41FA02F043EAE07306E041FACE
:1008200002F3D040C2F120029140084319467047BC
:100830000029A8BF7047401C490008BF20F00100F4
:10084000704710B4B0FA80FC00FA0CF050EA0104D2
:1008500004BF10BC704749B1CCF1200421FA04F464
:1008600011FA0CF118BF012121430843A3EB0C013D
:10087000CB1D4FEA00614FEA102042BF002010BCA0
:10088000704700EBC35010440029A4BF10BC704750
:10089000401C490008BF20F0010010BC704710B593
:1008A000141E73F1000408DA401C41F10001921893
:1008B0005B411A4301D120F0010010BD2DE9F04D3C
:1008C00092469B4611B1B1FA81F202E0B0FA80F291
:1008D00020329046FFF77BFF04460F4640EA0A00AD
:1008E00041EA0B0153465A46084313D0114653EAD6
:1008F000010019D0C8F140025046FFF777FF0546C6
:100900000E46504659464246FFF761FF084305D060
:10091000012004E020463946BDE8F08D0020054363
:1009200046EAE0762C4337430A986305E40AA0EBD5
:1009300008000022FD0A44EA47540A3002D500208C
:100940000146E9E7010510196941DDE9084500198B
:100950006941BDE8F04DA2E72DE9F04D00231A46AC
:100960001B1A8A4103DB00200146BDE8F08DC1F36C
:100970000A52C1F3130141F480154FF0000BD10767
:1009800002D100186D41521E0027044640F2FF11AB
:10099000384601EB620A3E468046024600204FF48C
:1009A0008011FFF723FFC2197141BB1846EB01000C
:1009B000B4EB030C75EB000C04D3E41A65EB0005F3
:1009C00017460E46241908F101006D41804634286F
:1009D000E3DDF91946EB0600091BA84103D24FF0ED
:1009E000FF32134601E0002213461BEB070046EBE3
:1009F0000A51BDE8F04DFFF752BFC1F30A52C1F3EF
:100A0000130140F2FF3341F480119A4202DA0020D0
:100A10000146704740F233439A42A2F2334202DC6D
:100A20005242FFF7E3BEFFF7D2BE0000064C074D6F
:100A300006E0E06840F0010394E8070098471034AE
:100A4000AC42F6D3FFF724FC8C720000AC720000BD
:100A500070B58C1810F8015B15F0070301D110F880
:100A6000013B2A1106D110F8012B03E010F8016BAD
:100A700001F8016B5B1EF9D12B0705D40023521E30
:100A80000DD401F8013BFAE710F8013BCB1A921C98
:100A900003E013F8015B01F8015B521EF9D5A14296
:100AA000D8D3002070BD000010B5002240211348AB
:100AB00001F0A6F900224121104801F0A1F900221D
:100AC000C4210F4801F09CF90022C5210C4801F017
:100AD00097F9002282210A4801F092F9002283212D
:100AE000074801F08DF900228221044801F088F9BD
:100AF00000228321014801F083F910BD00900240DB
:100B00000080024002F001031BB1D0F800340B4317
:100B100002E0D0F800348B43C0F8003402F0020346
:100B20001BB1D0F820340B4302E0D0F820348B43C3
:100B3000C0F820347047F0B5002416E00125A54028
:100B40000D4085B1D0F8C45F67000326BE40B543B1
:100B5000C0F8C45FD0F8C45F6700C2F34116BE405E
:100B60003543C0F8C45F651CECB2082CE6DB02F02C
:100B700001051DB1D0F800550D4302E0D0F8005535
:100B80008D43C0F8005502F002051DB1D0F80455A0
:100B90000D4302E0D0F804558D43C0F8045502F02F
:100BA00004051DB1D0F808550D4302E0D0F80855F2
:100BB0008D43C0F8085502F008051DB1D0F818554E
:100BC0000D4302E0D0F818558D43C0F8185502F0D7
:100BD00010051DB1D0F83C550D4302E0D0F83C554E
:100BE0008D43C0F83C5503F001051DB1D0F80C55FC
:100BF0000D4302E0D0F80C558D43C0F80C5503F0BE
:100C000002051DB1D0F810550D4302E0D0F8105583
:100C10008D43C0F8105503F004051DB1D0F81455EC
:100C20000D4302E0D0F814558D43C0F8145503F07D
:100C300008051DB1D0F81C550D4302E0D0F81C5535
:100C40008D43C0F81C5503F400751DB1D0F8445510
:100C50000D4302E0D0F844558D43C0F8445503F4E9
:100C600040751DB1D0F840550D4302E0D0F8405515
:100C70008D43C0F840551BB9D0F828550D4302E00C
:100C8000D0F828558D43C0F82855F0BD10B5014661
:100C9000C1F307400F4BDB6E01248440234033B186
:100CA000012303EB40030C4C54F8230003E0430002
:100CB000094C54F82300C1F30722D0F82C350F2437
:100CC0009440A34301F00F0494402343C0F82C3513
:100CD00010BD000000E00F40346900000246002013
:100CE00000EB81001058704730B504460D460823CC
:100CF000012229462046FFF71EFF012229462046F1
:100D0000FFF700FF30BD30B504460D4602222946EC
:100D10002046FFF7F7FE0823012229462046FFF769
:100D20000AFF30BD30B504460D4602222946204652
:100D3000FFF7E8FE0823012229462046FFF7FBFEC5
:100D400030BD002303EB8103C2507047042806D155
:100D50001949096841F48031174A11602BE00528D0
:100D600006D11549096841F40031134A116022E0A7
:100D7000062806D11049096841F480210E4A116005
:100D800019E00F2808D14FF0E021096941F0020174
:100D90004FF0E02211610EE010280CD3A0F11001F9
:100DA00001F01F0201219140A0F110025209034BF2
:100DB00053F822201160704724ED00E0F46D00002C
:100DC00010B50A4683080A4C54F823301968830783
:100DD000DC0EFF23A34099438307DB0E02FA03F3E3
:100DE00019438308024C54F82330196010BD0000E9
:100DF000586D000030B502460B4C24680B4DAC42D8
:100E00000ED0094C2368002005E053F82040074D20
:100E100045F82040401C9B28F7D3044C024D2C6021
:100E2000024C44F8221030BD08ED00E00004002020
:100E300010B504462CB104220E210548FFF781FFAE
:100E400004E000220E210248FFF77BFF10BD0000E6
:100E50000050024010B504462CB108220E2105486E
:100E6000FFF76FFF04E000220E210248FFF769FF41
:100E700010BD00000050024010B5094801F0C2FC4E
:100E800000BF074801F0D8FC0028FAD00E21054821
:100E9000FFF72AFF00220E210248FFF752FF10BD84
:100EA000050800F00050024010B504462CB10222A3
:100EB0000E210548FFF745FF04E000220E210248FD
:100EC000FFF73FFF10BD00000050024070B52DED50
:100ED000068B04460D464FF4D01001F089FC1F48E4
:100EE00001F090FC1E4801F08DFC1E48FFF7CEFE7D
:100EF00010211D48FFF707FF022280211B4800F048
:100F00004DFF40F2E24104FB01F0421E80211748F0
:100F100000F061FF2846FFF76FFB9FED150B53ECC8
:100F2000102BFFF777FA9FED140B53EC102BFFF704
:100F30006BFAFFF78DFB0646324682210B4800F024
:100F40005FFF01220421094800F050FF802107487B
:100F500000F03CFFBDEC068B70BD0000004000F0CF
:100F6000010800F004100100005000400080024021
:100F7000000000000000F43F000000000000F03F0F
:100F800070B52DED068B04460D464FF4D01001F0E0
:100F90002FFC1F4801F036FC1E4801F033FC1E48B0
:100FA000FFF774FE20211D48FFF7ADFE02228021CD
:100FB0001B4800F0F3FE40F2E24104FB01F0421E48
:100FC0008021174800F007FF2846FFF715FB9FED2B
:100FD000150B53EC102BFFF71DFA9FED140B53EC80
:100FE000102BFFF711FAFFF733FB06463246832139
:100FF0000B4800F005FF01220821094800F0F6FE29
:101000008021074800F0E2FEBDEC068B70BD0000B9
:10101000004000F0010800F00414010000500040FE
:1010200000800240000000000000F43F00000000CB
:101030000000F03F70B52DED068B04460D464FF4D1
:10104000D01001F0D5FB1F4801F0DCFB1E4801F079
:10105000D9FB1E48FFF71AFE10211D48FFF753FE6B
:101060000222C0211B4800F099FE40F2E24104FB3D
:1010700001F0421EC021174800F0ADFE2846FFF7E0
:10108000BBFA9FED150B53EC102BFFF7C3F99FED47
:10109000140B53EC102BFFF7B7F9FFF7D9FA0646FC
:1010A0003246C4210B4800F0ABFE01221021094852
:1010B00000F09CFEC021074800F088FEBDEC068BC6
:1010C00070BD0000004000F0040800F004100400AF
:1010D0000040024000800240000000000000F43F99
:1010E000000000000000F03F70B52DED068B0446B7
:1010F0000D464FF4D01001F07BFB1F4801F082FB3E
:101100001E4801F07FFB1E48FFF7C0FD20211D484F
:10111000FFF7F9FD0222C0211B4800F03FFE40F21C
:10112000E24104FB01F0421EC021174800F053FECB
:101130002846FFF761FA9FED150B53EC102BFFF7D4
:1011400069F99FED140B53EC102BFFF75DF9FFF7D6
:101150007FFA06463246C5210B4800F051FE0122B7
:101160002021094800F042FEC021074800F02EFE71
:10117000BDEC068B70BD0000004000F0040800F0DC
:1011800004140400004002400080024000000000FF
:101190000000F43F000000000000F03F70B52DEDAE
:1011A000068B04460D464FF4D01001F021FB1F487A
:1011B00001F028FB1E4801F025FB1E48FFF766FDE5
:1011C00001211D48FFF79FFD022240211B4800F02E
:1011D000E5FD40F2E24104FB01F0421E40211748C8
:1011E00000F0F9FD2846FFF707FA9FED150B53ECC9
:1011F000102BFFF70FF99FED140B53EC102BFFF79B
:1012000003F9FFF725FA0646324640210B4800F065
:10121000F7FD01221146094800F0E8FD402107488A
:1012200000F0D4FDBDEC068B70BD0000014000F065
:10123000030800F005000300007000400090024029
:10124000000000000000F43F000000000000F03F3C
:1012500070B52DED068B04460D464FF4D01001F00D
:10126000C7FA1F4801F0CEFA1E4801F0CBFA1E481B
:10127000FFF70CFD02211D48FFF745FD022240212A
:101280001B4800F08BFD40F2E24104FB01F0421EDE
:101290004021174800F09FFD2846FFF7ADF99FED6C
:1012A000150B53EC102BFFF7B5F89FED140B53EC17
:1012B000102BFFF7A9F8FFF7CBF90646324641217C
:1012C0000B4800F09DFD01220221094800F08EFD2F
:1012D0004021074800F07AFDBDEC068B70BD000090
:1012E000014000F0030800F0050403000070004016
:1012F00000900240000000000000F43F00000000E9
:101300000000F03F70B52DED068B04460D464FF4FE
:10131000D01001F06DFA204801F074FA1F4801F076
:1013200071FA41F60500FFF7B1FC40214FF0402073
:10133000FFF7E9FC02228021194800F02FFD40F25E
:10134000E24104FB01F0421E8021154800F043FDFC
:101350002846FFF751F99FED130B53EC102BFFF7C5
:1013600059F89FED120B53EC102BFFF74DF8FFF7D8
:101370006FF9064632468221094800F041FD0122FC
:101380000421074800F032FD8021054800F01EFDD1
:10139000BDEC068B70BD0000014000F0000800F0BD
:1013A00000900240000000000000F43F0000000038
:1013B0000000F03F70B52DED068B04460D464FF44E
:1013C000D01001F015FA204801F01CFA1F4801F076
:1013D00019FA41F60540FFF759FC80214FF04020F3
:1013E000FFF791FC02228021194800F0D7FC40F25F
:1013F000E24104FB01F0421E8021154800F0EBFCA5
:101400002846FFF7F9F89FED130B53EC102BFFF76D
:1014100001F89FED120B53EC102BFEF7F5FFFFF7D1
:1014200017F9064632468321094800F0E9FC0122FB
:101430000821074800F0DAFC8021054800F0C6FCCE
:10144000BDEC068B70BD0000014000F0000800F00C
:1014500000900240000000000000F43F0000000087
:101460000000F03F70B52DED068B044600224021B0
:10147000114800F0C5FC2046FFF7ADF841EC1A0B0F
:101480009FED0E0B53EC102BFEF7C4FF41EC190B34
:101490009FED0C0B53EC102BFEF7B6FF41EC180B35
:1014A000FFF7D6F805462A464121034800F0A8FC7C
:1014B000BDEC068B70BD00000090024000000000F3
:1014C0000000F43F000000000000F03F70B52DED7B
:1014D000068B04462046FFF77EF841EC1A0B9FED81
:1014E000100B53EC102BFEF795FF41EC190B9FED01
:1014F0000E0B53EC102BFEF787FF41EC180BFFF798
:10150000A7F805462A464021094800F079FC002248
:101510004121074800F074FCBDEC068B70BD000053
:10152000000000000000F43F000000000000F03F59
:101530000090024070B52DED068B04460022C421B8
:10154000114800F05DFC2046FFF745F841EC1A0B0E
:101550009FED0E0B53EC102BFEF75CFF41EC190BCB
:101560009FED0C0B53EC102BFEF74EFF41EC180BCC
:10157000FFF76EF805462A46C521034800F040FCF7
:10158000BDEC068B70BD0000008002400000000032
:101590000000F43F000000000000F03F70B52DEDAA
:1015A000068B04462046FFF716F841EC1A0B9FED18
:1015B000100B53EC102BFEF72DFF41EC190B9FED98
:1015C0000E0B53EC102BFEF71FFF41EC180BFFF72F
:1015D0003FF805462A46C421094800F011FC0022C4
:1015E000C521074800F00CFCBDEC068B70BD000067
:1015F000000000000000F43F000000000000F03F89
:101600000080024070B52DED068B04460022822139
:10161000114800F0F5FB2046FEF7DDFF41EC1A0B08
:101620009FED0E0B53EC102BFEF7F4FE41EC190B63
:101630009FED0C0B53EC102BFEF7E6FE41EC180B64
:10164000FFF706F805462A468321034800F0D8FB39
:10165000BDEC068B70BD0000008002400000000061
:101660000000F43F000000000000F03F70B52DEDD9
:10167000068B04462046FEF7AEFF41EC1A0B9FEDA9
:10168000100B53EC102BFEF7C5FE41EC190B9FED30
:101690000E0B53EC102BFEF7B7FE41EC180BFEF7C8
:1016A000D7FF05462A468221094800F0A9FB0022FF
:1016B0008321074800F0A4FBBDEC068B70BD000041
:1016C000000000000000F43F000000000000F03FB8
:1016D0000080024070B52DED068B04460022822169
:1016E000114800F08DFB2046FEF775FF41EC1A0B08
:1016F0009FED0E0B53EC102BFEF78CFE41EC190BFB
:101700009FED0C0B53EC102BFEF77EFE41EC180BFB
:10171000FEF79EFF05462A468321034800F070FB32
:10172000BDEC068B70BD0000009002400000000080
:101730000000F43F000000000000F03F70B52DED08
:10174000068B04462046FEF746FF41EC1A0B9FED40
:10175000100B53EC102BFEF75DFE41EC190B9FEDC7
:101760000E0B53EC102BFEF74FFE41EC180BFEF75F
:101770006FFF05462A468221094800F041FB0022FE
:101780008321074800F03CFBBDEC068B70BD0000D8
:10179000000000000000F43F000000000000F03FE7
:1017A0000090024010B5164801F02CF8154801F0E1
:1017B00029F81548FFF76AFA1448FFF767FA30214D
:1017C0001348FFF7AFFA00F0C7FE044660234FF45A
:1017D000E13221460F4801F0E6F90E4801F023FA04
:1017E0001620FFF7B3FA50210A4801F023FA0A49FC
:1017F000084801F023FA00211620FFF7E1FA10BD96
:10180000011800F0020800F00210020002140200A9
:101810000060004000D00040F129000010B52DED1F
:101820000C8B1920624908704F2048704FF4C36038
:1018300048805A2088808888FEF7DEFE41EC1D0B28
:101840009FED5C0B53EC102BFEF7E4FD41EC1C0B01
:101850009FED5A0B53EC102BFEF74EFE41EC1B0B89
:10186000B0EE4B0AF0EE6B0A01F096FDB0EE409A36
:10187000F0EE609A4E48007800EE100AF8EE400A4A
:101880004B48407800EE100AB8EE400A80EE801A0D
:1018900011EE104A2046FEF7F4FE41EC1C0BB0EEB0
:1018A0004C0AF0EE6C0A01F00BFCB0EE40BAF0EE20
:1018B00060BA9FED440B53EC102B51EC1B0BFEF761
:1018C000A9FD41EC1A0B53EC192BFEF7A3FD41ECDB
:1018D000180BFEF719FF3649C8608888FEF78CFEA2
:1018E00041EC1D0B9FED330B53EC102BFEF792FDDB
:1018F00041EC1C0B9FED310B53EC102BFEF7FCFD64
:1019000041EC1B0BB0EE4B0AF0EE6B0A01F0B4FD9C
:10191000B0EE409AF0EE609A2548007800EE100A8A
:10192000F8EE400A2248407800EE100AB8EE400A6D
:1019300080EE801A11EE104A2046FEF7A2FE41EC1E
:101940001C0BB0EE4C0AF0EE6C0A01F0B9FBB0EEE5
:1019500040BAF0EE60BA9FED1B0B53EC102B51EC2C
:101960001B0BFEF757FD41EC1A0B53EC192BFEF73E
:1019700051FD41EC180BFEF7C7FE0D498860488801
:10198000FEF73AFE41EC190B53EC192B9FED0F0BB0
:1019900051EC100BFEF7B0FD41EC180BFEF7B4FE56
:1019A0000349086100204861BDEC0C8B10BD0000AC
:1019B0008C0600206E861BF0F92109400000000013
:1019C0000080664012143FC6DCA54C406E861BF0BA
:1019D000F921194070B52DED048B05460C463C48A5
:1019E0000068854201DD3A48056839480068404290
:1019F000854202DA3648006845423648006884422B
:101A000001DD34480468334800684042844202DA09
:101A1000304800684442002D05DB2846FFF722FDD0
:101A20002846FFF7BBFD002D2BDA2846FEF7D3FD35
:101A300041EC190BB0EE490AF0EE690A01F010FD15
:101A4000B0EE408AF0EE608A51EC180BFEF7E1FD33
:101A50000646FFF73BFD2846FEF7BDFD41EC190B9E
:101A6000B0EE490AF0EE690A01F0FAFCB0EE408AE5
:101A7000F0EE608A51EC180BFEF7CBFD0646FFF73F
:101A800059FD002C05DB0020FFF7BCFD2046FFF7C9
:101A900021FE002C18DA2046FEF79DFD41EC190BC3
:101AA000B0EE490AF0EE690A01F0DAFCB0EE408AC5
:101AB000F0EE608A51EC180BFEF7ABFD0646FFF71F
:101AC000D5FD0020FFF706FEBDEC048B70BD0000C5
:101AD000100000201400002010B50446114800F04A
:101AE00091FE2221104800F0D9FE104804FB00F2BC
:101AF000FF210D4800F022FF6C20FFF727F901219C
:101B0000094800F004FF40216C20FFF759F9084A0A
:101B10004FF6FF71044800F0FEFEFF21024800F07E
:101B2000EDFE10BD050400F000500340A08601004A
:101B30007128000010B5174800F064FE164800F048
:101B400061FE0120FFF7A2F840F20140FFF79EF886
:101B500003214FF04020FFF7E5F800F0FDFC0446BC
:101B600060234FF4E13221460C4801F01CF80B4889
:101B700001F059F820211520FFF722F91520FFF771
:101B8000E5F85021054801F055F80549034801F0F2
:101B900055F810BD001800F0000800F000C000402B
:101BA0005D2900009FED250A254880ED000A9FED84
:101BB000230A80ED010A9FED210A80ED020A9FEDC4
:101BC0001F0A80ED030A9FED1D0A80ED050A9FEDB7
:101BD0001B0A80ED040A9FED190A80ED060A9FEDAD
:101BE000170A80ED070A9FED150A80ED080A9FEDA0
:101BF000130A144880ED000A9FED100A80ED010AD7
:101C00009FED0E0A80ED020A9FED0C0A80ED030A9B
:101C10009FED0A0A80ED050A9FED080A80ED040A8F
:101C20009FED060A80ED060A9FED040A80ED070A83
:101C30009FED020A80ED080A7047000000000000D6
:101C40000C080020300800209FED210A214880ED7B
:101C5000010A9FED1F0A80ED020A9FED1D0A80ED2B
:101C6000030A9FED1B0A80ED050A9FED190A80ED1E
:101C7000040A9FED170A80ED060A9FED150A80ED14
:101C8000070A9FED130A80ED080A9FED110A12481A
:101C900080ED010A9FED0E0A80ED020A9FED0C0A0D
:101CA00080ED030A9FED0A0A80ED050A9FED080A00
:101CB00080ED040A9FED060A80ED060A9FED040AF6
:101CC00080ED070A9FED020A80ED080A70470000C8
:101CD000000000000C08002030080020164890ED9D
:101CE000010AD0ED000A30EE600A80ED060A90EDA0
:101CF000080AD0ED060A30EE200A80ED080A90EDC1
:101D0000030AD0ED060A20EE200AD0ED040A90ED79
:101D1000081A00EE810AD0ED060A90ED071A70EE5F
:101D2000C10A90ED051A01EE200A80ED020A90ED3D
:101D3000060A80ED070A70470C080020164890ED4F
:101D4000010AD0ED000A30EE600A80ED060A90ED3F
:101D5000080AD0ED060A30EE200A80ED080A90ED60
:101D6000030AD0ED060A20EE200AD0ED040A90ED19
:101D7000081A00EE810AD0ED060A90ED071A70EEFF
:101D8000C10A90ED051A01EE200A80ED020A90EDDD
:101D9000060A80ED070A70473008002010B501449C
:101DA0000B68094C234013430B6002F0020323B17C
:101DB000B0230B621B014B6204E08C230B6240F6E4
:101DC0000C034B6210BD00000100F8FF425842F0C6
:101DD00001024250704701440B6803F0020313B143
:101DE00053080B6101E0531E0B617047012A03D1B8
:101DF00083680B43836002E083688B438360704792
:101E000030B5044621F03F052819056805F00205A4
:101E100005B1520803699B1A01F001050DB1C361B8
:101E200000E0836130BD10B500210120FFF7B6F955
:101E300000210120FFF70CFA00210120FFF762FAD0
:101E400000210120FFF7B6FA00210120FFF7F2F888
:101E500000210120FFF748F900210120FFF736F8A3
:101E600000210120FFF78CF810BD000010B52DED0A
:101E7000088B04217748FEF731FF08B9042000E001
:101E800000200446224604217248FEF75AFF724899
:101E9000D0ED040A90ED050AB8EE400A20EE800A63
:101EA00010EE101A0846FEF7ECFB41EC1B0BB0EEEF
:101EB0004B0AF0EE6B0A01F0DFFAB0EE409AF0EE5A
:101EC000609A654890ED030A10EE101A0846FEF776
:101ED000D8FB41EC1A0B53EC192BFEF79BFA41ECA3
:101EE000180BFEF711FC5D4948605B48D0ED040A11
:101EF00090ED050AB8EE400A20EE800A10EE101AA6
:101F00000846FEF7BEFB41EC1B0BB0EE4B0AF0EEB1
:101F10006B0A01F0B1FAB0EE409AF0EE609A4E48CA
:101F200090ED020A10EE101A0846FEF7AAFB41ECEB
:101F30001A0B53EC192BFEF76DFA41EC180BFEF758
:101F4000E3FB47494860FFF7C9FEFFF7F7FE444A45
:101F500092ED020ABDEEC00A10EE101A3F4A92ED51
:101F6000020ABDEEC00A10EE100AFFF733FD3A4830
:101F700040690A30384948610846406949888842C2
:101F800002D3002034494861344890ED010AD0ED75
:101F9000000A30EE600A10EE101A0846FEF771FBD8
:101FA00041EC190BB0EE490AF0EE690A01F058FA5B
:101FB000B0EE408AF0EE608A9FED2A0B53EC102BB6
:101FC00051EC180BFEF770FB29D2254890ED010A61
:101FD000D0ED000A30EE600A10EE101A0846FEF747
:101FE00050FB41EC190BB0EE490AF0EE690A01F022
:101FF00037FAB0EE408AF0EE608A9FED1A0B53EC90
:10200000102B51EC180BFEF74FFB08D21748007845
:10201000FA2804DC15480078401C1449087014485C
:102020000068401C124908600A280FD30F48007846
:10203000C82805DC0F480068401C0E49086002E013
:10204000FA200A490870002009490860BDEC088B95
:1020500010BD0000005002408C0600200C0800203B
:1020600030080020000000000000F03F0C000020BD
:10207000080000200400002070B52DED108B82B008
:102080000121ED4800F0E9FD06463146EA4800F03E
:10209000CFFDEA4800F070FDE94908800846008855
:1020A000242817D008460088252813D00846008821
:1020B00026280FD00846008840280BD00846008804
:1020C0004C2807D0084600882A2803D008460088F4
:1020D000672805D10120DB4908700020DA49086033
:1020E000D8480078012806D1D5480088D749D64A73
:1020F000126821F81200D348007801287DD1D04819
:1021000000882328FAD10120D14908700020CD4948
:102110000870CE480088242803D0CC4800884C287A
:102120000AD1CA4989783039C8B203F001F9C748E1
:102130000188C8A000F0EAFDC4480088252804D121
:1021400003F032FA044602F037FBC04800882A2820
:1021500004D103F029FA044602F0BAFEBB48008815
:10216000262804D103F00AFA044602F0FDFBB74822
:102170000088402807D103F02DFAB74A11789288D9
:1021800090B202F0E1FFB14800886728B6D1AF49AC
:102190008A88498802EB0121A1F5C870FEF71BFA75
:1021A00041EC190BA9490A89C98802EB0121A1F167
:1021B000F000FEF710FA41EC180B8DED008B53EC9C
:1021C000192BA6A000F0A2FD53EC182B51EC180B14
:1021D000FEF720F941EC1E0B53EC192B51EC190BB7
:1021E000FEF718F941EC1F0B53EC1E2BFEF76BF8B2
:1021F00041EC1D0BB0EE4D0A00E009E1F0EE6D0A76
:1022000001F09EF9B0EE40BAF0EE60BA53EC1B2B31
:1022100051EC180BFEF770F941EC1D0BB0EE4D0AB6
:10222000F0EE6D0A00F09CFDB0EE40AAF0EE60AA60
:102230009FED910B53EC102B51EC190BFEF74CFA60
:1022400022D29FED8D0B53EC102B51EC180BFEF7A7
:1022500043FA19D29FED8A0B53EC102B51EC1A0B59
:10226000FEF74AF941EC1E0B9FED870B53EC102B48
:10227000FEF7D0F841EC1D0B9FED830B53EC102BB8
:10228000FEF721F841EC1C0B9FED7B0B53EC102B60
:1022900051EC190BFEF708FA2AD29FED770B53EC9D
:1022A000102B51EC180BFEF717FA21D29FED740B8F
:1022B00053EC102B51EC1A0BFEF71EF941EC1F0BDF
:1022C0009FED710B53EC102BFEF7A4F841EC1E0BA5
:1022D0009FED6F0B53EC102BFEF799F841EC1D0BA3
:1022E0009FED6D0B53EC102BFDF7EDFF41EC1C0B3C
:1022F0009FED610B53EC102B51EC190BFEF7D4F949
:102300001ED29FED5D0B53EC102B51EC180BFEF71A
:10231000CBF915D251EC1A0B81F0004141EC1E0BA8
:102320009FED570B53EC102BFEF7E6F841EC1D0B1D
:102330009FED550B53EC102BFEF76CF841EC1C0B8A
:102340009FED4D0B53EC102B51EC190BFEF7C4F91C
:102350002AD29FED490B53EC102B51EC180BFEF7D2
:10236000A3F921D29FED460B53EC102B51EC1A0B25
:10237000FEF7C2F841EC1F0B9FED430B53EC102B03
:10238000FEF748F841EC1E0B9FED410B53EC102B70
:10239000FDF799FF41EC1D0B9FED3D0B53EC102B0E
:1023A000FDF791FF41EC1C0B51EC1C0BFEF750F9B3
:1023B000C4B29FED3B0B53EC102B51EC1B0BFEF703
:1023C0009BF841EC1D0BFEF743F985B221462846E8
:1023D00002F0BAFE9FED320B53EC102B51EC1B0BAD
:1023E000FEF78AF841EC1D0B8DED00CB53EC1D2B55
:1023F0002DA000F08BFC9FED200BB0EE409AF0EE8C
:10240000609A9FED1D0BB0EE408AF0EE608A00BF2F
:102410000D480068401C0C490860084600685028B8
:1024200005DB00200860074908700949087002B000
:10243000BDEC108B70BD00000070004000E000405B
:102440006E0000206C000020680000206C07002057
:102450006D0000202564200020000020783D3D3DD7
:102460003D2566202020202020202020793D3D3D54
:102470003D3D25660A00000000000000000000004D
:102480006F1283C0CA21094000000000008066402E
:1024900000000000008056400000000000E0704096
:1024A0000000000000002C40782A782B792A793D22
:1024B0003D3D3D2566202020202020202020616EEB
:1024C000676C653D3D3D3D3D25660A0010B51948E8
:1024D00000F098F9184800F095F918481849086074
:1024E000FF20091D08601748FEF7D0FB1648FEF7CD
:1024F000CDFBC0211548FEF715FC00F02DF8044671
:1025000060234FF4E1322146114800F04CFB0F48A4
:1025100000F089FB3120FEF719FC50210C4800F037
:1025200089FB0C490A4800F089FB60213120FEF745
:1025300047FC10BD021800F0030800F04B434F4C5D
:102540002075004001180300011C030000700040CA
:1025500000E0004079200000F0B55048036E026FA3
:1025600002F0004010B102F0700001E003F0300012
:10257000202811D003DC38B1102815D10AE030280A
:102580000CD0702810D10CE04548C3F3841750F8E4
:1025900027100BE0434909E0434907E047F2305177
:1025A00004E04FF4004101E00020F0BD00BF4FF017
:1025B000FF3402F0004010B102F4006028B102F0D4
:1025C000004090BB03F4006078BB3848056833488E
:1025D000D0F8646106F01F00401CC6F304277F1C7E
:1025E00010FB07F04000B1FBF0F1C5F309004843D0
:1025F000C5F389274F4300EB972143F48003274815
:10260000006900F47040B0F5804F13D006DCB0F5DF
:10261000005F0BD0B0F5405F12D109E0B0F5E04F9C
:102620000AD0B0F5104F0BD108E00BE0204C08E0C9
:10263000204C06E0204C04E0204C02E0204C00E05E
:1026400000BF00BF03F4800018B302F00040D8B10F
:1026500002F0804090B102F0004010B102F400603E
:1026600028B102F0004048B903F4006030B94F00CF
:10267000C2F38650401CB7FBF0F10AE0C2F3C5502C
:10268000401CB1FBF0F104E0C3F3C350401CB1FBAC
:10269000F0F18C4200D22146084686E700E00F4068
:1026A000C46900000024F40000093D0060E10F400F
:1026B00000B4C40480F0FA02005A620240787D013E
:1026C000002D31012DE9F04106464448046E056FA6
:1026D00044F4006424F4800445F40065046605674E
:1026E00004F00100D8B106F00100C0B966F00100A5
:1026F00004404FF4807039498865084604664FF4F9
:10270000002702E07F1E07B905E03448006D00F4A1
:1027100080700028F6D000BF0FB9BDE8F08124F426
:10272000FE6406F4FE6004432D4805402C49A131A7
:1027300006EA0100054306F0080045EAC0052748FF
:102740000466056724F4005406F40050044325F49D
:10275000005506F40050054340202049886505F0E7
:10276000004018B108460567046602E01B4804668D
:1027700005671C480440C14306EA0100044325F0F4
:10278000FC5506F0FC50054306F0804040B144F48F
:10279000800425F48005144906EA0100054301E0A0
:1027A00025F0804506F4006080B94FF4004706E04C
:1027B0000E48006800F0010000B102E07F1E002F0B
:1027C000F6D100BF24F4006425F4006503480466D4
:1027D00005671020FDF762FD00BF9EE700E00F4097
:1027E0008FFFFF7FFEFF3FF80000404068E10F4091
:1027F0000349096E21F4F0110143014A1166704743
:1028000000E00F4010B50121C0F30722094B1A4424
:1028100002F0704242F00072C0F30723054C2344DB
:10282000C3F3130342EA4312C3B242EA83021160C4
:1028300010BD000000E60F400146C1F307200B4A1F
:10284000104400F0704040F00070C1F30722074BC5
:102850001A44C2F3130240EA4210CAB240EA8200AC
:10286000006808B1012070470020FCE700EA0F4033
:1028700010B50849086980470648D0F8F00000F50F
:102880007A700449C1F8F0000121034800F03DF8D6
:1028900010BD00001C01002000500340C26840F23F
:1028A00001139A43C2600A0E0260114A1268114B6A
:1028B0001A40114B9A4211D1CAB201F4702342EA74
:1028C000131242F40072426001F47002C1F3072354
:1028D00043EA122242F40072826008E0CAB242F473
:1028E00000724260C1F3072242F4007282607047B6
:1028F00000E00F400000FF7000000A10C26840F2C4
:1029000001130B401A43C2607047416270478269ED
:102910000A43826170472DE9F04105460E46144690
:102920003146284600F0A0F9074621463846FEF712
:1029300061FA3846FEF70AFABDE8F081CBB203B17E
:10294000826201F47F4303B1C26270470246FF29ED
:1029500001D1906C7047D06CFCE7000070B501218C
:10296000204800F07AF9054629461E4800F060F933
:1029700005F0100010B31B4800F0FEF8C4B21A486E
:10298000008800F40040C8B91748008800F480406F
:1029900060B10A2C03D000201349088020E01248BF
:1029A000008840F400401049088019E00D2C06D141
:1029B0000D48008840F480400B49088010E00A4828
:1029C0000088C0F30D0009490C5407480088401CDA
:1029D0000549088008460088C72801DD00200880D6
:1029E00070BD000000C0004018000020A4060020B8
:1029F00070B52DED068B0121534800F02EF90546E8
:102A00002946514800F014F94F4800F0B5F84F49F5
:102A10004F4A127888544E48007830B908460078FA
:102A2000552802D0BDEC068B70BD49480078401C8B
:102A300047490870084600780B286FD100200870BD
:102A40004248407853287DD1404989783F4AD2781E
:102A500041EA022108B2FDF7BEFD41EC1A0B9FEDE1
:102A60003D0B53EC102BFDF747FD41EC190B9FED8F
:102A70003B0B53EC102BFDF7CDFC41EC180BFDF795
:102A800043FE3849086031490979304A527941EAB0
:102A9000022108B2FDF79FFD41EC1A0B9FED2D0BB3
:102AA00053EC102BFDF728FD41EC190B9FED2B0B80
:102AB00053EC102BFDF7AEFC41EC180BFDF724FE98
:102AC0002849486008212848FEF708F908B9082075
:102AD00000E000200446224608212348FEF731F991
:102AE000204890ED010AB1EE400A204880ED000A2E
:102AF0001C4890ED000A1E4880ED000A1D48007831
:102B000008281BD2DFE800F01A04070B0E11141777
:102B100001F044FE15E001F045FE12E012E001F084
:102B200019FF0EE001F0EEFF0BE002F0DDF808E027
:102B300002F04AFA05E002F04BFA02E0FDF7B4FFBA
:102B400000BF00BF00BF6DE700D000405408002068
:102B500070000020000000000000E04000000000C5
:102B60000080664078080020005002400C080020D9
:102B70003008002000000020014600BF886900F0F6
:102B800010000028FAD10868704700BF826902F07F
:102B90002002002AFAD101607047014688690122AB
:102BA00022EA10107047F0B504460E4615461F463F
:102BB000204600F01EF8B6EB051F05D2206B40F052
:102BC000200020636D0803E0206B20F020002063CC
:102BD000F000B0FBF5F0401C43089809606203F078
:102BE0003F00A062E7620020A061204600F011F8DB
:102BF000F0BD00BF816901F008010029FAD1C16A66
:102C000021F01001C162016B40F201329143016376
:102C10007047C16A41F01001C162016B40F201329C
:102C2000114301637047C16A21F01001C16270470E
:102C300041647047826B0A438263704770B50446F3
:102C40000D46204600F03CF8064629463046FEF781
:102C5000D1F83046FEF77AF870BD024609B1106C23
:102C60007047D06BFCE70000F0B503460C460F4DF3
:102C70000C260F4800680F4F38400F4FB84201D163
:102C80000E4D082600210DE055F83100984208D17C
:102C900005EBC1004268B4F57F4F00D1521C1046CD
:102CA000F0BD491CB142EFD30020F9E7986C000059
:102CB00000E00F400000FF7000000A10F86C0000F8
:102CC00030B502460C4B08240C4800680C4D2840D7
:102CD0000C4DA84201D10C4B00BF002108E053F875
:102CE0003100904203D103EBC100406830BD491C64
:102CF000A142F4D30020F9E7186C000000E00F4077
:102D00000000FF7000000A10586C00000FB4054B63
:102D100010B503A9044A029801F02EF910BC5DF821
:102D200014FB0000114700001002002003B40198BA
:102D30004100009850EAC12018BF04204A0D18BF76
:102D400040F0010040F2FF72B2EB515F08BF40F06B
:102D50000200012808BF052002B0704700000000F3
:102D600070B5C1482DED020B2DED0E8B82B0119D7B
:102D700025F000449FEDBEDB9FEDBFEB84423EDBC0
:102D8000A4F140511098A1F17F6108430FD0BC48D5
:102D9000844202DC28D1109830B39DED100B02B0B4
:102DA000BDEC0E8B02B0BDE8704000F0F1BF9DEDB0
:102DB000100B53EC1D2B51EC100BFDF72BFB9DED75
:102DC000100B41EC180B53EC1E2B51EC100BFDF7C4
:102DD00021FB53EC182BFDF776FA41EC100B02B0F7
:102DE000BDEC0E8B02B070BD012001F00DF802B0F9
:102DF000BDEC0E8B02B0BDE8704000F0D5BFA1481D
:102E00009FEDA18B844256DA9DED100BB4F1795FF2
:102E10000ADA51EC100BFFF789FF042808BF00F015
:102E2000D3FF9DED100BDAE753EC102B51EC100B98
:102E3000FDF7F0FA41EC190B95480621B0EE490A6E
:102E4000F0EE690A784400F08FFE53EC192B51EC38
:102E5000100BFDF7DFFA41EC1A0B8E48B0EE490A71
:102E6000F0EE690A0421784400F07EFE53EC192B41
:102E700051EC100BFDF7CEFA53EC182BFDF723FAAB
:102E800041EC100B51EC1A0B53EC102BFDF734FBFB
:102E9000CDE900019DED000B53EC102B9DED100BC7
:102EA00051EC100BFDF7B6FA9DED101B53EC112BF6
:102EB000FDF709FAD2E09DED100B51EC100B01F07B
:102EC0001AFC53EC182BFDF7A2FA9FED730BCDE91A
:102ED000000153EC102B9DED000B51EC100BFDF796
:102EE00099FA41EC190B6E480621B0EE490AF0EE52
:102EF000690A784400F038FE53EC192B51EC100BA2
:102F0000FDF788FA41EC1B0B6648B0EE490AF0EE7B
:102F1000690A0421784400F027FE53EC192B51EC88
:102F2000100BFDF777FA53EC182BFDF7CCF941ECB9
:102F30001C0B51EC190B02F07FFB41EC180B5A48AB
:102F40009FED5BABA04222DC53EC1C2B51EC1B0B26
:102F5000FDF7D2FACDE900019DED000B51EC180B05
:102F600053EC102BFDF756FA53EC182BFDF7ABF989
:102F700053EC1A2BFDF74EFA53EC1D2BFDF744FAD8
:102F800053EC1E2BFDF743FA41EC100B5FE08DED87
:102F9000008B002000909DED000B51EC180B53ECC2
:102FA000102BFDF790F99DED000B41EC1E0B53EC3F
:102FB000102B51EC100BFDF72DFA53EC192BFDF7EC
:102FC00026FA53EC1E2BFDF797FA41EC190B53EC44
:102FD0001C2B51EC1B0BFDF78FFA41EC1B0B53EC38
:102FE0001A2B51EC190BFDF715FA53EC1D2BFDF7BD
:102FF0000EFA41EC190B53EC1A2B51EC180BFDF7A0
:1030000009FA53EC1B2BFDF705FA53EC192BFDF7CE
:10301000FBF99DED000B41EC180B53EC1A2B51EC16
:10302000100BFDF7F7F99FED249B53EC192BFDF7DF
:10303000EEF941EC100B51EC180B53EC102BFDF793
:10304000E3F953EC192BFDF7E2F941EC100B002DDD
:103050003FF7C5AE51EC100B81F0004141EC100B75
:10306000BDE60000000000000000F03F000000008E
:10307000075C143326A6913C182D4454FB21F93FDC
:103080000000F07F0000E03F000000000000F03F83
:10309000004000000E400000000000000000E03F83
:1030A000523F0000603F00003333EF3F000000005C
:1030B0000000000000000040182D4454FB21E93FAF
:1030C00070B59B482DED020B2DED068B079D25F06D
:1030D0000044A04218DC9748844202DC0AD10698DA
:1030E00040B19DED060BBDEC068B02B0BDE8704013
:1030F00000F04EBE002DCCBF9FED8F0B9FED900BCF
:10310000BDEC068B02B070BD8F48A04215DD8F4824
:10311000A042D8BF4FF0FF3458DD9DED060B51ECB7
:10312000100BFFF703FE042808BF00F04DFE9DEDD5
:10313000060BBDEC068B02B070BD9DED060B51EC8D
:10314000100B01F0D8FACDE9060181489FED828B82
:10315000A0423CDD8248A0421FDD00249FED82ABEF
:103160009DED060B53EC1A2B51EC100BFDF7ABF851
:103170009DED060B41EC190B53EC1A2B51EC100B87
:10318000FDF748F953EC182BFDF73EF953EC192BDA
:10319000FDF7B2F9CDE9060149E09DED060B0124EA
:1031A00053EC182B51EC100BFDF78DF89DED060B31
:1031B00041EC190B53EC182B51EC100BFDF724F9D3
:1031C00053EC192BFDF798F9CDE906012FE068487B
:1031D000A0421FDD02249FED689B9DED060B53EC82
:1031E000192B51EC100BFDF715F953EC182BFDF7CB
:1031F0006AF89DED060B41EC180B53EC192B51ECC2
:10320000100BFDF701F953EC182BFDF775F9CDE91B
:1032100006010CE09DED060B032453EC102B9FEDF3
:10322000580B51EC100BFDF767F9CDE906019DED48
:10323000060B53EC102B51EC100BFDF7EBF841ECA7
:10324000180B53EC182BFDF7E5F841EC190B4E4821
:103250000621B0EE490AF0EE690A784400F084FCD9
:1032600053EC182B51EC100BFDF7D4F841EC180B74
:103270004648B0EE490AF0EE690A0521784400F0AC
:1032800073FC53EC192B51EC100BFDF7C3F841EC18
:10329000100B51EC180B53EC102B002C0EDAFDF731
:1032A00012F89DED061B53EC112BFDF7B3F89DEDC5
:1032B000061B53EC112BFDF7AAF835E0FDF703F8D8
:1032C0009DED061B53EC112BFDF7A4F841EC100B00
:1032D0002F48784400EBC40090ED001B51EC100B1C
:1032E00053EC112BFDF790F89DED061B53EC112BC1
:1032F000FDF78AF841EC100B2648784400EBC40037
:1033000090ED001B51EC100B53EC112BFDF77FF8E7
:1033100041EC100B002DA2BFBDEC068B02B070BDBE
:1033200051EC100B81F0004141EC100B01E7000063
:10333000000010440000F07F182D4454FB21F93F99
:10334000182D4454FB21F9BF0000DC3F0000203E53
:103350000000F33F00000000000000000000F03F0C
:103360000000E63F000000000000000000000040F8
:103370000080034000000000000000000000F83F53
:10338000000000000000F0BFA23C0000583C00001C
:10339000E23B00009A3B000010B52F499FED2C1B2B
:1033A0002DED020B84B0059820F000408842D8BF74
:1033B0009DED040B2DDD2949884209D1049840B9BF
:1033C0004FF0010000F020FD00F0EEFC06B010BD53
:1033D00005DB9DED040B00F0DBFC06B010BD68467C
:1033E0009DED040B00F0ECF810F0030004BF9DED20
:1033F000021B9DED000B0CD001280ED09DED021B91
:103400009DED000B022817D0012000F029FC06B02A
:1034100010BD00F0F1FA06B010BD9DED021B9DED50
:10342000000B012000F01CFC51EC100B81F000415E
:1034300006B041EC100B10BD00F0DEFA51EC100BA1
:1034400081F0004106B041EC100B10BD00000000FF
:103450000000000000000000FB21E93F0000F07FB9
:103460002DED020B019820F0004001909DED000B26
:1034700002B070470000000010B52F499FED2C1BD3
:103480002DED020B84B0059820F000408842DCBF8F
:1034900000209DED040B32DD2849884209D10498B3
:1034A00040B94FF0010000F0AFFC00F07DFC06B029
:1034B00010BD05DB9DED040B00F06AFC06B010BDED
:1034C00068469DED040B00F07BF810F0030011D06E
:1034D000012818D09DED021B9DED000B02281AD08B
:1034E00000F08AFA51EC100B81F0004106B041EC7B
:1034F000100B10BD9DED021B9DED000B012000F097
:10350000AFFB06B010BD9DED021B9DED000B00F062
:1035100073FA06B010BD012000F0A2FB51EC100BB5
:1035200081F0004106B041EC100B10BD000000001E
:103530000000000000000000FB21E93F0000F07FD8
:1035400000B52DED048BB0EE409AF0EE609A83B09A
:1035500051EC190BFDF700FA41EC180B18EE100AAC
:1035600018EE901A8DED008B002818BF012008433B
:1035700020F00040C0F17F6000F1E040C00F14D0A7
:1035800019EE101A19EE900A8DED009B002918BF54
:103590000121084320F00040C0F17F6000F1E040CD
:1035A000C00F04BF012000F02FFCB0EE480A03B0AA
:1035B000F0EE680ABDEC048B00BD000000000000C6
:1035C0002DE9F14F04462DED020B2DED088B8AB04D
:1035D0009FEDE70B80ED020B139EE74826F00045B8
:1035E00085420ADC9DED120B002084ED000B0AB031
:1035F000BDEC088B03B0BDE8F08FE0489FEDE0AB79
:103600009FEDE1BBA84247DDE14F9FEDE39B9FEDBE
:10361000E48B9DED120B53EC1A2B51EC100B002E8A
:103620001CDDFCF7F1FE41EC100BBD4208D053EC61
:103630001B2B51EC100BFCF7E7FEC4E900010BE07B
:1036400053EC192B51EC100BFCF7DEFE53EC182B4E
:10365000FCF7DAFEC4E900010120C8E7FCF733FEFD
:1036600041EC100BBD4208D053EC1B2B51EC100B5E
:10367000FCF729FEC4E900010BE053EC192B51ECD7
:10368000100BFCF720FE53EC182BFCF71CFEC4E9D2
:1036900000014FF0FF30AAE7C348A84279DB9DED57
:1036A000120B51EC100B01F026F841EC180B9FEDBA
:1036B000C00B53EC102BFCF7ADFE9FEDBF1B53EC82
:1036C000112BFCF700FEFCF7A4FF0746FCF783FF75
:1036D00041EC190B53EC1A2BFCF79CFE53EC182B06
:1036E000FCF795FE41EC180B53EC1B2B51EC190B1E
:1036F000FCF790FEDFF8C8A241EC100B4FEA15581A
:103700000125FA4453EC102B51EC180BFCF77CFE0E
:10371000032DC4E900013DD0C1F30A5005EB45116A
:10372000A8EB00001139814234DA0AEB051BB0EE38
:1037300048AA9BED000BF0EE68AA53EC102B51EC5D
:10374000190BFCF767FE41EC1B0B51EC1A0B53EC09
:103750001B2BFCF759FE41EC180B51EC1A0B53ECE8
:10376000182BFCF751FE53EC1B2BFCF74DFE9BED89
:10377000020B41EC1A0B53EC102B51EC190BFCF71C
:1037800049FE53EC1A2BFCF73FFE41EC100B6D1C6D
:10379000B8E70EE0002EA8BF3846BFF628AF94ED7C
:1037A000000B51EC100B81F00041C4E9000178429C
:1037B0001DE7C6F3130040F4801EC6F30A50A0F2C2
:1037C000F530471100F01F05C5F12000DDF848B0C5
:1037D00008900020069007900520EC467949002DBE
:1037E00007EB0002794408BF51F8221009D051F8C4
:1037F000223001EB8201AB404A68089922FA01F1BC
:103800001943A1FB0E26A1FB0B131A449A4234BFA5
:103810000123002303EB06080CEB8003D3E901A688
:103820000E448E4234BF0121002192448A4411B1DA
:10383000924502D903E0924501D2012100E0002126
:10384000C3E901A641444CF82010011EA0F101007B
:10385000C4DC029800F10050850F0298DDE903678F
:103860008000DDF81480FCF7B6FE41EC1A0B304600
:10387000FCF7C2FE9FED541B53EC112BFCF7CAFD65
:1038800041EC1B0B3846FCF7B7FE9FED511B53EC88
:10389000112BFCF7BFFD41EC180B4046FCF7ACFECA
:1038A0009FED4D1B53EC112BFCF7B4FD41EC190BB4
:1038B00051EC180B53EC192BFCF705FD53EC1B2BAB
:1038C000FCF701FD53EC1A2BFCF7FDFCCDE90801D8
:1038D000002008909DED080B53EC1A2B51EC100BB7
:1038E000FCF792FD53EC1B2BFCF78EFD53EC182BD1
:1038F000FCF78AFD53EC192BFCF789FD9FED381B73
:1039000053EC112BFCF786FD9FED370B41EC180BA8
:1039100053EC102B9DED080B51EC100BFCF77AFDCE
:1039200053EC182BFCF7CFFC9FED310B41EC180B3F
:1039300053EC102B9DED080B51EC100BFCF76AFDBE
:1039400053EC182BFCF7BFFC41EC100B139810F054
:10395000004F06D06D4251EC100B81F0004141EC5C
:10396000100B284684ED000B41E60000000000002B
:103970000000000000000000FB21E93F7CD902406C
:1039800000004054FB21F93F3163621A61B4D03D1D
:10399000FB21F93F000000000000601A61B4D03D37
:1039A0007370032E8A19A33BFB21394100000000EC
:1039B00083C8C96D305FE43F000000000000E03FB5
:1039C0005A380000A8370000000000000000103E38
:1039D000000000000000103C000000000000103A51
:1039E000182D4454FB21F93D3326A611460B113CFA
:1039F00000000054FB21F93D10B52DED040B2DED19
:103A0000088B82B0B0EE419AF0EE619A0B9820F0EC
:103A100000449FED4BABB4F1795F11DA9DED0A0BD9
:103A200051EC100BFCF7F5FD002801BFB0EE4A0A7F
:103A3000F0EE6A0A02B0BDEC088B04BF04B010BD02
:103A40009DED0A0B53EC102B51EC100BFCF7E2FC34
:103A500041EC180B3C480621B0EE480AF0EE680A2B
:103A6000784400F081F853EC182B51EC100BFCF764
:103A7000D1FC9DED0A0B41EC1B0B53EC192B51ECC7
:103A8000100BFCF7C7FC41EC190B53EC1B2B51EC52
:103A9000180BFCF7BFFC53EC192BFCF7B5FC9FEDA2
:103AA0002C0B41EC190B53EC102B51EC180BFCF7C1
:103AB000B1FC41EC100B2848844210DA53EC192B6E
:103AC00051EC100BFCF7A0FC53EC1A2BFCF79FFCFD
:103AD00041EC100B02B0BDEC088B04B010BD1F48C8
:103AE000A042BCBF9FED1E1B8DED001B06DBA4F5A5
:103AF00000100190002000909DED001B51EC100B78
:103B000053EC112BFCF780FC9DED000B41EC180BE6
:103B100053EC102B51EC1A0BFCF776FC41EC1A0B12
:103B200053EC192B51EC180BFCF76EFC53EC1A2BD1
:103B3000FCF76DFC41EC100BCCE70000000000002E
:103B4000000000000000F03FCC3400000000000046
:103B5000000000000000E03F3333D33F0000E93FA6
:103B6000000000000000D23F70B504462DED028B2E
:103B70004D1E00EBC500B0EE408AF0EE608A90ED7D
:103B8000000B35F0060017D053EC182B51EC100B3E
:103B9000FCF740FC41EC100B6D1E04EBC50090EDF2
:103BA000001B51EC100B53EC112BFCF78CFB41EC80
:103BB000100B35F00600E7D1022D36D0042D1CD0B5
:103BC000062D1CBFBDEC028B70BD53EC182B51ECC5
:103BD000100BFCF71FFC94ED0A1B53EC112BFCF7A8
:103BE00072FB53EC182BFCF715FC94ED081B53ECFF
:103BF000112BFCF768FB41EC100B53EC182B51EC2C
:103C0000100BFCF707FC94ED061B53EC112BFCF793
:103C10005AFB53EC182BFCF7FDFB94ED040B53EC13
:103C2000102BFCF750FB41EC100B53EC182B51EC14
:103C3000100BFCF7EFFB94ED021B53EC112BFCF780
:103C400042FB53EC182BFCF7E5FB94ED001B53EC07
:103C5000112BFCF738FBBDEC028B41EC100B70BD57
:103C600031B504462DED040B2DED0A8BB0EE41BAB3
:103C7000F0EE61BA0B989DED0A0B20F00040B0F118
:103C8000795F0DDA51EC100BFFF750F8042808BFEC
:103C900000F09AF89DED0A0BBDEC0A8B05B030BD23
:103CA00053EC102B51EC100BFCF7B4FB41EC180B50
:103CB0009DED0A0B53EC182B51EC100BFCF7AAFBF3
:103CC00041EC190B2C48B0EE480AF0EE680A0521C9
:103CD0007844FFF749FF9FED2ACBB0EE40AAF0EE03
:103CE00060AA9CB353EC1C2B51EC190BFCF792FB14
:103CF00041EC1C0B53EC1A2B51EC190BFCF78AFB13
:103D00009FED210B41EC190B53EC102B51EC1B0BCD
:103D1000FCF780FB53EC192BFCF776FB53EC182BCC
:103D2000FCF778FB53EC1B2BFCF76EFB53EC1C2BC6
:103D3000FCF76AFB9DED0A1B53EC112BFCF767FBAC
:103D4000BDEC0A8B05B041EC100B30BDFFE753EC26
:103D50001A2B51EC180BFCF75DFB53EC1C2BFCF7FA
:103D6000B2FA53EC192BFCF755FB9DED0A1B53ECF3
:103D7000112BFCF7A8FAE3E7543300000000000021
:103D8000495555555555C5BF000000000000E03F9E
:103D900010B553EC102B51EC100BFCF794FA41ECDE
:103DA000100B10BD000000009FED050B10B553EC8B
:103DB000102B51EC100BFCF79FFB41EC100B10BDCE
:103DC00000000000000000009FED050B10B553EC53
:103DD000102B51EC100BFCF71DFB41EC100B10BD30
:103DE000000000000000001002E008C8121F08C117
:103DF000002AFAD170477047002001E001C1121F6C
:103E0000002AFBD17047000001490860704700009C
:103E1000140200202DE9FF5FDDE90220010DDDF82D
:103E200038B0024318D044F61050A1F2FF3141439C
:103E30000D140F98012820D0A5EB0B00401C5FEA61
:103E4000000A4FF00004474EDFF81C91A046504690
:103E500016D5CAF1000728E00F98012443A20128D3
:103E600008D0002100980F9BC0E90021C0E902435F
:103E7000BDE8FF9F6FEA0B01F4E7CBF10000DEE73E
:103E8000074612E0F80707D0224633464046494627
:103E9000FCF7C0FA8046894622463346104619464A
:103EA000FCF7B8FA04460E467F10002FEAD1DDE990
:103EB0000201BAF1000F42464B4602DAFCF7AAFAB9
:103EC00001E0FCF719FB04460E460022284BFCF7E4
:103ED00003FC03D84FF0FF30014607E00022254BDA
:103EE00020463146FCF7EFF9FCF787FD102409E086
:103EF000002C0ADB0A220023FCF738FC019B30323D
:103F00001A55641E50EA0102F2D1641C019AC4F1F0
:103F1000110314440F9A012A03D0012208430DD142
:103F20000AE0084304D000204FF0110B0F9080E707
:103F3000A3EB0B056D1E0DE05B4504DD4FF00002A9
:103F400005F1010504E003DA4FF00002A5F10105D7
:103F5000002AECD000980F99C0E90231C0E9004571
:103F600086E70000000024400000F03F3000000021
:103F70000000F0430000E03F2DE9FF4F95B09B4665
:103F80008946064600250FE2252877D100242746DA
:103F9000F84A0121059400E0044316F8013F203B54
:103FA00001FA03F01042F7D130782A2811D06FF0CF
:103FB0002F033078A0F13002092A16D8059A44F070
:103FC000020402EB820203EB42021044761C0590CD
:103FD000EFE759F8042B0592002A03DA504244F423
:103FE0000054059044F00204761C30782E2816D137
:103FF00016F8010F44F004042A280DD06FF02F02A8
:104000003078A0F13003092B09D807EB870302EBC6
:104010004303C718761CF3E759F8047B761C307805
:104020006C280FD006DC4C2817D068280DD06A28E1
:1040300014D104E0742810D07A280FD10DE044F494
:1040400000140AE044F4801401E044F4401472784F
:10405000824202D104F58014761C761C30786628E2
:104060000BD013DC582877D009DC002875D0452800
:10407000F6D04628F4D047281AD19DE118E06328ED
:1040800035D0642879D0652812D195E1702873D095
:1040900008DC6728F1D069286FD06E280DD06F2812
:1040A00006D1B5E073282CD0752875D0782874D047
:1040B0005A46179990476D1C75E1C4F302500228C7
:1040C00009D003280DD0D9F8001004280DD00D60B8
:1040D00009F1040967E1D9F80010EA17C1E90052B3
:1040E000F6E7D9F800100D80F2E70D70F0E719F847
:1040F000041B8DF8001000208DF80100EA46012015
:1041000003E059F804AB4FF0FF3061074FF00001B6
:1041100002D40DE008F101018846B9420FDA80456A
:10412000F8DB1AF808100029F4D108E008F10101C1
:1041300088468142FADB1AF808100029F6D1059862
:104140005B46A0EB080721463846179A00F094FA20
:10415000284400EB080507E04DE029E10DE01AF8DE
:10416000010B5A4617999047B8F10108F7D25B4600
:1041700021463846179A13E142E00A220092C4F31E
:1041800002524FF0000A022A08D059F804CB032A41
:104190004FEAEC710AD00DE029E02AE009F10701AD
:1041A00021F00702F2E802C1914609E00FFA8CFC07
:1041B0004FEAEC71042A03D14FFA8CFC4FEAEC7100
:1041C000002907DA0A460021DCF1000C61EB02014C
:1041D0002D2202E0220504D52B228DF80420012295
:1041E00003E0E20701D02022F7E7904659E00A21D8
:1041F00002E010220DE010214FF0000A00910BE0C8
:1042000010224FF0000A44F004040827009203E053
:1042100008224FF0000A0092C4F30252022A05D08D
:1042200059F804CB0021032A08D009E009F107015D
:1042300021F00702F2E802C1914605E01FFA8CFC6A
:10424000042A01D10CF0FF0C4FF00008220728D5FA
:10425000702806D0009B83F0100353EA0A0305D0B0
:104260000EE040228DF80420012208E05CEA010201
:1042700006D030228DF804208DF8050002229046E9
:10428000009B83F0080353EA0A030AD15CEA0102A7
:1042900001D1620705D530228DF804204FF00108C6
:1042A0007F1E582804D034A003900EA802900DE081
:1042B00036A0F9E753466046009AFCF757FA844661
:1042C0000398825C0298401E029002705CEA010032
:1042D000F0D1029806A9081A00F1200A600702D559
:1042E00024F4803400E00127574502DDA7EB0A00E3
:1042F00000E0002000EB0A01009005984144401ABC
:104300000590E00306D45B462146179A059800F015
:10431000B3F90544002706E001A85A46C05D179985
:1043200090476D1C7F1C4745F6DBE0030CD55B46D0
:104330002146179A059800F09FF9054404E03020C3
:104340005A46179990476D1C0099481E0090002905
:10435000F5DC08E0029802995A460078491C02915F
:10436000179990476D1CBAF10001AAF1010AF1DC1E
:1043700065E1000009280100303132333435363729
:1043800038396162636465660000000030313233A1
:104390003435363738394142434445460000000041
:1043A00000F058F90544761C307800287FF4ECAD15
:1043B00019B02846BDE8F08F620700D4062709F13E
:1043C000070222F0070CFCE80223E14603F0004854
:1043D0005FEA080C02D00FF2702C0DE05FEA045C7B
:1043E00002D50FF2682C07E05FEAC47C02D00FF21E
:1043F000602C01E0AFF2700C4FF0FF3823F0004367
:10440000CDF850C065280CD006DC452809D04628D8
:104410001DD047283DD13DE0662818D067287ED1C1
:1044200038E00021112F01DB112000E0781CCDE9DC
:10443000000106A90EA8FFF7EDFCDDE90F010E9AB9
:1044400003910021009207F1010A04914DE04FF021
:1044500000400097CDE9011006A90EA8FFF7DAFC8D
:10446000DDE90F0203920E9B11990022DDF80CA0EA
:104470000093049211B9791C00EB010AB7EB0A0012
:1044800004D4C0F1FF3007F1010A0490AAEB070041
:10449000019044E0012F00DA01270021112F01DDF6
:1044A000112000E03846CDE9000106A90EA8FFF76B
:1044B000B1FCDDE90F010E9A0391002104910092F5
:1044C000BA4621070CD40399514500DA8A46BAF15D
:1044D000010F05DD009AAAF10101515C302908D0D5
:1044E000B84202DA10F1040F06DA0121CDE9011019
:1044F00015E0AAF10101E9E7002805DC049901446F
:104500000491AAEB000102E0411C514500DD8A46FE
:104510000499401A401C01904FF00040029020077F
:1045200004D40198504501DBCDF8048000208DF8BB
:104530004F0002980DF14F07B0F1004F25D02B200E
:104540000E9002984FF0020800280CDA40420290C8
:104550002D200E9007E00A210298FCF7F1F8303187
:10456000029007F8011DB8F10001A8F10108F2DC82
:1045700002980028EFD1791E0E980870307800F06C
:10458000200040F0450007F8020D12A8C01B00F102
:1045900007081498007800B1012000EB0A01019887
:1045A00001EBE07105984144401A401E0590E0037C
:1045B00006D45B462146179A059800F05DF805443D
:1045C0001498007818B15A46179990476D1CE0036B
:1045D00024D55B462146179A059800F04DF805440E
:1045E0001CE00498002807DBDDE90301884203DDB5
:1045F0000098405C179901E0179930205A4690477F
:10460000049805F10105401C04900198401E01909A
:1046100004D12E205A46179990476D1CBAF100011B
:10462000AAF1010ADDDC05E017F8010B5A461799DB
:1046300090476D1CB8F10001A8F10108F4DC5B465D
:104640002146179A0598ABE62D0000002B000000CC
:10465000200000002DE9F041044600251E461746C3
:10466000880404D405E039462020B0476D1C641E40
:10467000F9D52846BDE8F0812DE9F0410446002532
:104680001E469046C80301D5302700E02027880445
:1046900004D505E041463846B0476D1C641EF9D587
:1046A0002846BDE8F0810000002003490860034966
:1046B00008600349087070470400002008000020CB
:1046C0000C00002010B5044646F62A0204FB02F056
:1046D0004FF08072526CD2F88810884710BD10B528
:1046E00004461A2204FB02F04FF08072526CD2F89A
:1046F0008810884710BD82B0CDE9000121F000404C
:1047000001909DED000B02B051EC100B70470000C2
:1047100070B504460D46E1B20548FEF736FA00BF13
:104720000348FEF73AFA0028FAD1204670BD00008F
:1047300000C000401448FDF7C5FFFCF79DFBFDF7E6
:10474000F9F91248416850208847FDF76CFBFDF7E6
:1047500029FAFDF727F8FDF7B9FE13E00C480078B9
:1047600007280FD00A48007809280BD0084800789D
:1047700040B1084800884C2804D00749098888B20D
:1047800000F036FEEAE70000400500C11C010020F1
:10479000000000206C0700200400002010B5FDF789
:1047A00065FB10BD10B503480078232801D0FDF744
:1047B0005DFB10BD8C06002070B52DED0C8B044602
:1047C000204604EBD071C1F34701574A11701146DE
:1047D0008888FBF711FF41EC1D0B9FED540B53EC48
:1047E000102BFBF717FE41EC1C0B9FED520B53EC0B
:1047F000102BFBF781FE41EC1B0BB0EE4B0AF0EEE9
:104800006B0AFEF7C9FDB0EE409AF0EE609A46489A
:10481000007800EE100AF8EE400A4348407800EEB7
:10482000100AB8EE400A80EE801A11EE105A28469F
:10483000FBF727FF41EC1C0BB0EE4C0AF0EE6C0AC4
:10484000FEF73EFCB0EE40BAF0EE60BA9FED3B0BD7
:1048500053EC102B51EC1B0BFBF7DCFD41EC1A0B5E
:1048600053EC192BFBF7D6FD41EC180BFBF74CFF73
:104870002D49C8608888FBF7BFFE41EC1D0B9FEDFA
:104880002B0B53EC102BFBF7C5FD41EC1C0B9FEDE4
:10489000290B53EC102BFBF72FFE41EC1B0BB0EE5A
:1048A0004B0AF0EE6B0AFEF7E7FDB0EE408AF0EE41
:1048B000608A1D48007800EE100AF8EE400A1A4897
:1048C000407800EE100AB8EE400A80EE801A11EE31
:1048D000105A2846FBF7D5FE41EC1C0BB0EE4C0AF3
:1048E000F0EE6C0AFEF7ECFBB0EE40BAF0EE60BA08
:1048F0009FED120B53EC102B51EC1B0BFBF78AFDB9
:1049000041EC1A0B53EC182BFBF784FD41EC190B0F
:10491000FBF7FAFE044988600846017809A0FEF713
:10492000F5F9BDEC0C8B70BD8C0600206E861BF07B
:10493000F9210940000000000080664012143FC6C3
:10494000DCA54C406D6F64655F325F523A20256490
:104950000A00000010B5034880886F2801D0FDF7D9
:1049600085FA10BD8C06002070B52DED0C8B044629
:104970005948848001468888FBF73EFE41EC1D0BB8
:104980009FED560B53EC102BFBF744FD41EC1C0B39
:104990009FED540B53EC102BFBF7AEFD41EC1B0BC2
:1049A000B0EE4B0AF0EE6B0AFEF7F6FCB0EE409A62
:1049B000F0EE609A4848007800EE100AF8EE400ADF
:1049C0004548407800EE100AB8EE400A80EE801AA2
:1049D00011EE105A2846FBF754FE41EC1C0BB0EECA
:1049E0004C0AF0EE6C0AFEF76BFBB0EE40BAF0EE4C
:1049F00060BA9FED3E0B53EC102B51EC1B0BFBF7F9
:104A000009FD41EC1A0B53EC192BFBF703FD41ECAC
:104A1000180BFBF779FE3049C8608888FBF7ECFD7E
:104A200041EC1D0B9FED2D0B53EC102BFBF7F2FC13
:104A300041EC1C0B9FED2B0B53EC102BFBF75CFD9B
:104A400041EC1B0BB0EE4B0AF0EE6B0AFEF714FDC7
:104A5000B0EE409AF0EE609A1F48007800EE100A1F
:104A6000F8EE400A1C48407800EE100AB8EE400A02
:104A700080EE801A11EE105A2846FBF702FE41EC38
:104A80001D0BB0EE4D0AF0EE6D0AFEF719FBB0EE0D
:104A900040CAF0EE60CA51EC1C0B81F0004141ECC1
:104AA0001B0B9FED120B53EC102BFBF7B3FC41ECEF
:104AB0001A0B53EC192BFBF7ADFC41EC180BFBF771
:104AC00023FE05498860084681880AA0FEF71EF982
:104AD000BDEC0C8B70BD00008C0600206E861BF0B8
:104AE000F9210940000000000080664012143FC612
:104AF000DCA54C406D6F64655F335F64753A2025BB
:104B0000640A000010B52DED048B6A4890ED000A90
:104B100010EE101A0846FBF7B4FD41EC190BB0EE8D
:104B2000490AF0EE690AFEF79BFCB0EE408AF0EE0F
:104B3000608A9FED610B53EC102B51EC180BFBF7C7
:104B4000B3FD7CD25E4890ED000A10EE101A0846C4
:104B5000FBF797FD41EC190BB0EE490AF0EE690A3C
:104B6000FEF77EFCB0EE408AF0EE608A9FED520BBD
:104B700053EC102B51EC180BFBF796FD5FD29FED19
:104B8000510A4C4880ED030A9FED4F0A80ED050A5B
:104B90009FED4E0A80ED040A9FED4A0A484880EDD9
:104BA000030A9FED490A80ED050A9FED480A80ED52
:104BB000040A9FED470A3F4880ED010A9FED440A31
:104BC0003F4880ED010AFDF789F8FDF7B7F839484D
:104BD00090ED010AD0ED000A30EE600A10EE101AD6
:104BE0000846FBF74EFD41EC190BB0EE490AF0EE1A
:104BF000690AFEF735FCB0EE408AF0EE608A9FED60
:104C0000350B53EC102B51EC180BFBF74DFD27D255
:104C10002B4890ED010AD0ED000A30EE600A10EE4C
:104C2000101A0846FBF72DFD41EC190BB0EE490AAE
:104C3000F0EE690AFEF714FCB0EE408A00E023E0D3
:104C4000F0EE608A9FED230B53EC102B51EC180B08
:104C5000FBF72AFD04D221480078401C1F49087048
:104C60001F480068401C1E4908600A280ED31B48D4
:104C70000078C82804DC1B480068401C19490860FB
:104C800000201749086001E0FCF7DEFF0C4A92EDB6
:104C9000020ABDEEC00A10EE101A064A92ED020A90
:104CA000BDEEC00A10EE100AFCF794FEBDEC048BBA
:104CB00010BD00000C08002000000000000049406A
:104CC000300800200000C84200409C46CDCCCC3DBE
:104CD00000000000000000000000F03F0C00002079
:104CE000080000200400002010B52DED088B70484E
:104CF000007823287ED06E48D0ED040A90ED050A96
:104D0000B8EE400A20EE800A10EE101A0846FBF7B3
:104D1000B8FC41EC1B0BB0EE4B0AF0EE6B0AFEF751
:104D20003BFBB0EE409AF0EE609A614890ED030ACA
:104D300010EE101A0846FBF7A4FC41EC1A0B53ECDA
:104D4000192BFBF767FB41EC180BFBF7DDFC59490E
:104D500048605748D0ED040A90ED050AB8EE400AC5
:104D600020EE800A10EE101A0846FBF78AFC41EC90
:104D70001B0BB0EE4B0AF0EE6B0AFEF77DFBB0EEBC
:104D8000409AF0EE609A4A4890ED020A10EE101A2E
:104D90000846FBF776FC41EC1A0B53EC192BFBF79A
:104DA00039FB41EC180BFBF7AFFC43494860FCF7BB
:104DB00095FFFCF7C3FF404A92ED020ABDEEC00A20
:104DC00010EE101A3B4A92ED020ABDEEC00A10EE38
:104DD000100AFCF7FFFD364840690A303449486143
:104DE000084640694988884202D30020304948611A
:104DF000304800E058E090ED010AD0ED000A30EEB6
:104E0000600A10EE101A0846FBF73BFC41EC190B48
:104E1000B0EE490AF0EE690AFEF722FBB0EE408AD6
:104E2000F0EE608A9FED250B53EC102B51EC180B24
:104E3000FBF73AFC25D2204890ED010AD0ED000A9C
:104E400030EE600A10EE101A0846FBF71AFC41EC2F
:104E5000190BB0EE490AF0EE690AFEF701FBB0EE5D
:104E6000408AF0EE608A9FED150B53EC102B51EC4D
:104E7000180BFBF719FC04D212480078401C1149AA
:104E8000087011480068401C0F4908600A280BD3BD
:104E90000C480078C82804DC0C480068401C0B490A
:104EA0000860002008490860BDEC088B10BD0000B8
:104EB0008C0600200C0800203008002000000000B4
:104EC0000000F03F0C00002008000020040000203B
:104ED00070B52DED068B0446204604EBD071C1F36E
:104EE0004701324A11701046007800EE100AF8EEC1
:104EF000400A1046407800EE100AB8EE400A80EEF4
:104F0000801A11EE105A2846FBF7BBFB41EC1A0B36
:104F1000B0EE4A0AF0EE6A0AFEF7D2F8B0EE409A16
:104F2000F0EE609A9FED220B53EC102B51EC190B15
:104F3000FBF770FA41EC180BFBF7E6FB1B49C86066
:104F40000846007800EE100AF8EE400A084640785D
:104F500000EE100AB8EE400A80EE801A11EE105AE8
:104F60002846FBF78EFB41EC1A0BB0EE4A0AF0EE36
:104F70006A0AFEF7A5F8B0EE409AF0EE609A9FED4F
:104F80000C0B53EC102B51EC190BFBF743FA41ECD3
:104F9000180BFBF7B9FB054988600846017806A0A5
:104FA000FDF7B4FEBDEC068B70BD00008C06002042
:104FB00012143FC6DCA54C406D6F64655F355F52CF
:104FC0003A2025640A00000010B5FFF78DFE10BDE1
:104FD00010B52DED048B5248007823287ED0504820
:104FE00080886F287AD09FED4F0A4F4880ED030AE2
:104FF0009FED4E0A80ED050AB7EE000A80ED040A27
:105000009FED480A4A4880ED030A9FED480A80ED6B
:10501000050AB7EE000A80ED040A414890ED030A44
:10502000414880ED010A3E4890ED020A404880ED7B
:10503000010AFCF753FEFCF781FE3B4890ED010AA4
:10504000D0ED000A30EE600A10EE101A0846FBF7A9
:1050500018FB41EC190BB0EE490AF0EE690AFEF7B5
:10506000FFF9B0EE408AF0EE608A9FED320B53EC10
:10507000102B51EC180BFBF717FB25D22C4890EDA9
:10508000010AD0ED000A30EE600A10EE101A084650
:10509000FBF7F7FA41EC190BB0EE490AF0EE690A9A
:1050A000FEF7DEF9B0EE408AF0EE608A9FED210B4C
:1050B00053EC102B51EC180BFBF7F6FA04D21F48F7
:1050C0000078401C1D4908701D480068401C1C49A0
:1050D00008600A2810D31948007800E00AE0C828C0
:1050E00004DC18480068401C164908600020144978
:1050F000086001E0FCF7A8FD0D4A92ED020ABDEE42
:10510000C00A10EE101A084A92ED020ABDEEC00A5B
:1051100010EE100AFCF75EFCBDEC048B10BD000025
:105120008C060020000048430C08002000401C466C
:1051300030080020000000000000F03F0C000020BC
:10514000080000200400002070B52DED0C8B0446F3
:105150000D4664488480057001468888FBF74CFA48
:1051600041EC1D0B9FED600B53EC102BFBF752F93C
:1051700041EC1C0B9FED5E0B53EC102BFBF7BCF9C5
:1051800041EC1B0BB0EE4B0AF0EE6B0AFEF704F994
:10519000B0EE409AF0EE609A5248007800EE100AA5
:1051A000F8EE400A4F48407800EE100AB8EE400A88
:1051B00080EE801A11EE106A3046FBF762FA41EC7D
:1051C0001D0BB0EE4D0AF0EE6D0AFDF779FFB0EE63
:1051D00040CAF0EE60CA51EC1C0B81F0004141EC7A
:1051E0001B0B9FED450B53EC102BFBF713F941EC18
:1051F0001A0B53EC192BFBF70DF941EC180BFBF7CD
:1052000083FA3849C8608888FBF7F6F941EC1D0B32
:105210009FED350B53EC102BFBF7FCF841EC1C0B0E
:105220009FED330B53EC102BFBF766F941EC1B0B96
:10523000B0EE4B0AF0EE6B0AFEF71EF9B0EE409AA4
:10524000F0EE609A2748007800EE100AF8EE400A67
:105250002448407800EE100AB8EE400A80EE801A2A
:1052600011EE106A3046FBF70CFA41EC1C0BB0EE65
:105270004C0AF0EE6C0AFDF723FFB0EE40BAF0EEF8
:1052800060BA9FED1D0B53EC102B51EC1B0BFBF781
:10529000C1F841EC1A0B53EC192BFBF7BBF841ECAE
:1052A000180BFBF731FA0F4988604888FBF7A4F91F
:1052B00041EC190B53EC192B9FED110B51EC100B1A
:1052C000FBF71AF941EC180BFBF71EFA05490861C8
:1052D0000846027881880CA0FDF718FDBDEC0C8B08
:1052E00070BD00008C0600206E861BF0F92109407D
:1052F000000000000080664012143FC6DCA54C4050
:105300006E861BF0F92119406D6F64655F375F6130
:105310006E67656C3A202564202020206D6F6465DF
:105320005F375F7261646975733A2025640A000013
:1053300010B50446FCF788FC00F034F8FCF76EFA70
:10534000FFF7B2F9022C06D0032C08D0052C0AD0A6
:10535000072C12D10BE023200D4908700EE06F20BE
:105360000B4988800AE023200949087006E02320C1
:10537000074908706F20888000E000BF00BFFBF77E
:1053800093FB04480470017803A0FDF7BFFC10BD37
:105390008C060020000000206D6F64653A202564B3
:1053A0000A0000009FED0D0A0D4880ED030A9FEDF5
:1053B0000D0A80ED050A9FED0C0A80ED040A9FEDB1
:1053C000070A0A4880ED030A9FED060A80ED050AE8
:1053D0009FED050A80ED040A704700000000484276
:1053E0000C0800200060EA460000000030080020A1
:1053F0002DE9F0418CB00446642094FBF0F000F1FC
:1054000030050A2094FBF0F00A2190FBF1F201FB39
:10541000120000F130060A2094FBF0F100FB11406D
:1054200000F130070020089009900A900B9074203A
:105430008DF8200032208DF821002E208DF82200DA
:1054400074208DF8230078208DF8240074208DF8C6
:1054500025003D208DF8260022208DF82700E8B297
:105460008DF82800F0B28DF829002E208DF82A0042
:10547000F8B28DF82B0022208DF82C0020216846F0
:10548000FAF716FF9FED390B8DED000B9FED370BF3
:105490008DED020B9FED350B8DED040B0D2108A852
:1054A00000F002F99DED001BB0EE410AF0EE610A3A
:1054B00051EC100BFBF7CCF800F0FF0841462D48EB
:1054C000FDF763FB9DED001BB0EE410AF0EE610AB3
:1054D00051EC100BFBF7BCF800F0FF0841462648E2
:1054E000FDF753FB9DED021BB0EE410AF0EE610AA1
:1054F00051EC100BFBF7ACF800F0FF0841461D48DB
:10550000FDF743FB9DED021BB0EE410AF0EE610A90
:1055100051EC100BFBF79CF800F0FF0841461648D1
:10552000FDF733FB9DED041BB0EE410AF0EE610A7E
:1055300051EC100BFBF78CF800F0FF0841460D48CA
:10554000FDF723FB9DED021BB0EE410AF0EE610A70
:1055500051EC100BFBF77CF800F0FF0841460648C1
:10556000FDF713FB0CB0BDE8F08100000000000067
:1055700000E06F4000C0004000E000400121002238
:1055800009E0084830F8110002EB820300EB430009
:10559000A0F13002491C034830F811002328F0D153
:1055A00090B270476C0700200121002209E00848F2
:1055B00030F8110002EB820300EB4300A0F130024F
:1055C000491C034830F811002328F0D1D0B27047AD
:1055D0006C070020012000210022154B5A601A6040
:1055E0000CE0144A32F81020114B5B6803EB830384
:1055F00002EB4302303A0E4B5A60401C0D4A32F81F
:1056000010202B2AEDD1411C0CE00A4A32F811205F
:10561000074B1B6803EB830302EB4302303A044B56
:105620001A60491C034A32F81120232AEDD1704731
:10563000200000206C07002000B52DED048B83B006
:1056400041EC190BFBF788F941EC180B18EE100A26
:1056500018EE901A8DED008B002818BF012008432A
:1056600020F00040C0F17F6000F1E040C00F14D096
:1056700019EE101A19EE900A8DED009B002918BF43
:105680000121084320F00040C0F17F6000F1E040BC
:10569000C00F04BF0120FEF7B7FB51EC180B03B09D
:1056A000BDEC048B00BD000070B504460D4604E05F
:1056B00021780448FDF769FA641C2800A5F101056A
:1056C000F6D170BD00E0004030B595B0054613AB93
:1056D00012AA09A9284600F03DFA044614B1204652
:1056E00015B030BD0020149026E0224909689DF8CD
:1056F000502001EBC20113AB11AA486801A900F0C8
:1057000029FA04460CB12046EAE709A901A800F0ED
:10571000ABFC60B99DF844009DF84810884201DD5B
:105720000220DDE79DF85000124988750AE09DF8D7
:105730005000401CC0B214900E48007D9DF85010DF
:105740008842D2DC00BF0B48007D9DF85010884293
:1057500001D10420C4E714A9284600F0DBFA04466E
:105760000CB12046BCE79DF8500002494875002066
:10577000B6E700001C0100202DE9F0419AB0002698
:105780009D48847D007DA04202DC1AB0BDE8F08116
:105790009949096801EBC40106AB07AA486808A942
:1057A00000F0D8F908A995A0FDF7B0FA002545E06A
:1057B0009148008B0121A9400840D8B1222191A035
:1057C000FDF7A4FA284600F02BFB8B49243147183B
:1057D00039468DA0FDF79AFA22218AA0FDF796FAA4
:1057E000284600F01DFB84492431084410A941F8E3
:1057F000250019E0284600F013FB7F4924310858A2
:1058000010A941F825007C48C07D012806D110A8C8
:1058100050F825107DA0FDF779FA05E010A850F8A2
:1058200025107BA0FDF772FA9DF81C00401EA842CF
:1058300002D079A0FDF76AFA681CC5B29DF81C0079
:105840008542B5DB75A0FDF761FA00F029FB6A48D7
:10585000407D0B280DD2DFE800F0060D151E273223
:105860003F4E5F7287006449096851F834008047F1
:10587000064690E0604A126852F834101098884743
:10588000064688E05C4B1B6853F83420DDE91001C4
:10589000904706467FE0584F3F6857F8343010A8CD
:1058A00007C89847064676E0DFF84CC1DCF800C030
:1058B0005CF8347010A80FC8B84706466BE014981F
:1058C000DFF834C10090DCF800C05CF8347010A838
:1058D0000FC8B84706465EE0DDE91401DFF818C1DD
:1058E000CDE90001DCF800C05CF8347010A80FC8E6
:1058F000B84706464FE0DDE914121698DFF8F8C005
:10590000CDE900120290DCF800C05CF8347010A8F9
:105910000FC8B84706463EE0DDE91423DDE916105E
:10592000DFF8D4C0CDE90023CDE90210DCF800C0D7
:105930005CF8347010A80FC8B84706462BE0DDE9C4
:10594000163218991598CDE90232049101901498F5
:10595000DFF8A4C00090DCF800C05CF8347010A838
:105960000FC8B847064616E0DDE91623DDE9181032
:10597000CDE90223CDE90410DDE91401DFF878C098
:10598000CDE90001DCF800C05CF8347010A80FC845
:10599000B847064600BF00BF00F052FA9DF8180055
:1059A00001280DD11448C07D012804D131461CA026
:1059B000FDF7ACF907E031461BA0FDF7A7F902E0BF
:1059C00018A0FDF7A3F90C4890F8EC0088B10A483C
:1059D000D0F8F0000A21B0FBF1F201FB12070648F3
:1059E000D0F8F000B0FBF1F83A46414611A0FDF7BF
:1059F0008DF900BFC9E600001C0100200D0A2573C7
:105A0000280000002563000025730000256C750048
:105A100030582558000000002C000000290000002C
:105A20003D256C753B0D0A003D305825583B0D0A4D
:105A30000000000046756E6374696F6E2052756ECB
:105A40002054696D653A25642E2531646D730D0A05
:105A500000000000F0B50346154600200022002695
:105A6000002455E01F782C2F01D104B901221F78A2
:105A7000292F01D01F780FB904B94AE0002E34D184
:105A80001F78302F02DB1F78392F11DD1F78612F2F
:105A900002DB1F78662F0BDD1F78412F02DB1F789A
:105AA000462F05DD1F78582F02D01F78782F0CD194
:105AB00002B12EE01F78612F03DB1F78203F0F70AB
:105AC00001E01F780F70491C1FE01F78222F04D1BE
:105AD00002B11EE00126012417E01F78202F14D008
